{"abi":[{"type":"constructor","inputs":[],"stateMutability":"nonpayable"},{"type":"receive","stateMutability":"payable"},{"type":"function","name":"BALANCER","inputs":[],"outputs":[{"name":"","type":"address","internalType":"contract IBalancerVault"}],"stateMutability":"view"},{"type":"function","name":"VENUE_BALANCER","inputs":[],"outputs":[{"name":"","type":"uint8","internalType":"uint8"}],"stateMutability":"view"},{"type":"function","name":"VENUE_CURVE","inputs":[],"outputs":[{"name":"","type":"uint8","internalType":"uint8"}],"stateMutability":"view"},{"type":"function","name":"VENUE_MAVERICK","inputs":[],"outputs":[{"name":"","type":"uint8","internalType":"uint8"}],"stateMutability":"view"},{"type":"function","name":"VENUE_UNISWAP_V3","inputs":[],"outputs":[{"name":"","type":"uint8","internalType":"uint8"}],"stateMutability":"view"},{"type":"function","name":"WETH","inputs":[],"outputs":[{"name":"","type":"address","internalType":"address"}],"stateMutability":"view"},{"type":"function","name":"balancerPoolIds","inputs":[{"name":"","type":"address","internalType":"address"}],"outputs":[{"name":"","type":"bytes32","internalType":"bytes32"}],"stateMutability":"view"},{"type":"function","name":"configureBalancer","inputs":[{"name":"lst","type":"address","internalType":"address"},{"name":"poolId","type":"bytes32","internalType":"bytes32"}],"outputs":[],"stateMutability":"nonpayable"},{"type":"function","name":"configureCurve","inputs":[{"name":"lst","type":"address","internalType":"address"},{"name":"pool","type":"address","internalType":"address"}],"outputs":[],"stateMutability":"nonpayable"},{"type":"function","name":"configureUniswapV3","inputs":[{"name":"lst","type":"address","internalType":"address"},{"name":"pool","type":"address","internalType":"address"},{"name":"fee","type":"uint24","internalType":"uint24"}],"outputs":[],"stateMutability":"nonpayable"},{"type":"function","name":"curvePools","inputs":[{"name":"","type":"address","internalType":"address"}],"outputs":[{"name":"","type":"address","internalType":"address"}],"stateMutability":"view"},{"type":"function","name":"executeArb","inputs":[{"name":"lst","type":"address","internalType":"address"},{"name":"amount","type":"uint256","internalType":"uint256"},{"name":"buyVenue","type":"uint8","internalType":"uint8"},{"name":"sellVenue","type":"uint8","internalType":"uint8"},{"name":"minProfit","type":"uint256","internalType":"uint256"}],"outputs":[],"stateMutability":"nonpayable"},{"type":"function","name":"owner","inputs":[],"outputs":[{"name":"","type":"address","internalType":"address"}],"stateMutability":"view"},{"type":"function","name":"receiveFlashLoan","inputs":[{"name":"tokens","type":"address[]","internalType":"contract IERC20[]"},{"name":"amounts","type":"uint256[]","internalType":"uint256[]"},{"name":"feeAmounts","type":"uint256[]","internalType":"uint256[]"},{"name":"userData","type":"bytes","internalType":"bytes"}],"outputs":[],"stateMutability":"nonpayable"},{"type":"function","name":"simulateArb","inputs":[{"name":"lst","type":"address","internalType":"address"},{"name":"amount","type":"uint256","internalType":"uint256"},{"name":"buyVenue","type":"uint8","internalType":"uint8"},{"name":"sellVenue","type":"uint8","internalType":"uint8"}],"outputs":[{"name":"expectedProfit","type":"uint256","internalType":"uint256"}],"stateMutability":"nonpayable"},{"type":"function","name":"uniswapFees","inputs":[{"name":"","type":"address","internalType":"address"}],"outputs":[{"name":"","type":"uint24","internalType":"uint24"}],"stateMutability":"view"},{"type":"function","name":"uniswapPools","inputs":[{"name":"","type":"address","internalType":"address"}],"outputs":[{"name":"","type":"address","internalType":"address"}],"stateMutability":"view"},{"type":"function","name":"withdraw","inputs":[{"name":"token","type":"address","internalType":"address"}],"outputs":[],"stateMutability":"nonpayable"},{"type":"function","name":"withdrawETH","inputs":[],"outputs":[],"stateMutability":"nonpayable"},{"type":"event","name":"ArbitrageExecuted","inputs":[{"name":"lst","type":"address","indexed":true,"internalType":"address"},{"name":"buyVenue","type":"uint8","indexed":false,"internalType":"uint8"},{"name":"sellVenue","type":"uint8","indexed":false,"internalType":"uint8"},{"name":"amountIn","type":"uint256","indexed":false,"internalType":"uint256"},{"name":"profit","type":"uint256","indexed":false,"internalType":"uint256"}],"anonymous":false},{"type":"event","name":"VenueConfigured","inputs":[{"name":"lst","type":"address","indexed":true,"internalType":"address"},{"name":"venue","type":"uint8","indexed":false,"internalType":"uint8"},{"name":"pool","type":"address","indexed":false,"internalType":"address"}],"anonymous":false},{"type":"error","name":"InsufficientProfit","inputs":[{"name":"actual","type":"uint256","internalType":"uint256"},{"name":"required","type":"uint256","internalType":"uint256"}]},{"type":"error","name":"InvalidVenue","inputs":[{"name":"venue","type":"uint8","internalType":"uint8"}]},{"type":"error","name":"NotBalancer","inputs":[]},{"type":"error","name":"NotOwner","inputs":[]},{"type":"error","name":"SwapFailed","inputs":[]},{"type":"error","name":"VenueNotConfigured","inputs":[{"name":"lst","type":"address","internalType":"address"},{"name":"venue","type":"uint8","internalType":"uint8"}]}],"bytecode":{"object":"0x60a0806040523461004d5733608052612612908161005282396080518181816101890152818161094101528181610c9501528181610d5b0152818161105a015281816111df01526114870152f35b5f80fdfe608080604052600436101561001c575b50361561001a575f80fd5b005b5f905f3560e01c9081630e04d2ff1461170a57508063229d38121461142857806332e4b7f1146113c357806338aa34461461119057806351cff8d91461100b5780637fe4e3c714610fd15780638351351b14610cf3578063879b9f1d14610cb95780638da5cb5b14610c4a57806396f50b2d14610bfd57806399e96fcc14610ae0578063a788871814610a7c578063ad5c464814610a2f578063d259175b146109cc578063e086e5ec146108fb578063e6e6ad39146108c1578063f04f2707146103bf578063f33fec2b146101315763fb43be450361000f573461012e57807ffffffffffffffffffffffffffffffffffffffffffffffffffffffffffffffffc36011261012e57602060405160018152f35b80fd5b503461012e5760407ffffffffffffffffffffffffffffffffffffffffffffffffffffffffffffffffc36011261012e5761016961176e565b610171611791565b9073ffffffffffffffffffffffffffffffffffffffff7f00000000000000000000000000000000000000000000000000000000000000001633036103975773ffffffffffffffffffffffffffffffffffffffff1690818352826020526040832073ffffffffffffffffffffffffffffffffffffffff82167fffffffffffffffffffffffff000000000000000000000000000000000000000082541617905573ffffffffffffffffffffffffffffffffffffffff604051917f095ea7b300000000000000000000000000000000000000000000000000000000835216908160048201527fffffffffffffffffffffffffffffffffffffffffffffffffffffffffffffffff60248201526020816044818773c02aaa39b223fe8d0a0e5c4f27ead9083c756cc25af1801561036f5761037a575b50604051907f095ea7b30000000000000000000000000000000000000000000000000000000082528060048301527fffffffffffffffffffffffffffffffffffffffffffffffffffffffffffffffff602483015260208260448187875af190811561036f577f40f25d1705e032e3ccedacdfa8dbf0a8ee392f4ca4bad65e1877f0afef3ce08792604092610342575b50815190600182526020820152a280f35b6103639060203d602011610368575b61035b8183611856565b810190611989565b610331565b503d610351565b6040513d86823e3d90fd5b6103929060203d6020116103685761035b8183611856565b6102a2565b6004837f30cd7471000000000000000000000000000000000000000000000000000000008152fd5b503461012e5760807ffffffffffffffffffffffffffffffffffffffffffffffffffffffffffffffffc36011261012e5760043567ffffffffffffffff81116108905736602382011215610890578060040135906024602061041f84611897565b61042c6040519182611856565b848152019260051b8201019036821161088c57602401915b818310610894578360243567ffffffffffffffff81116108905761046c9036906004016118af565b60443567ffffffffffffffff811161085b5761048c9036906004016118af565b906064359067ffffffffffffffff821161088c573660238301121561088c57816004013567ffffffffffffffff811161085f578460207fffffffffffffffffffffffffffffffffffffffffffffffffffffffffffffffe0601f84011601936104f76040519586611856565b8285526020850192366024828401011161085b578060246020930185378501015273ba12222222228d8ba445958a75a0704d566bf2c833036108335760808380518101031261082f57519273ffffffffffffffffffffffffffffffffffffffff841680940361082f5761056c604084016119db565b92610587608061057e606084016119db565b9201519361190c565b5191604051907f70a0823100000000000000000000000000000000000000000000000000000000825230600483015260208260248173c02aaa39b223fe8d0a0e5c4f27ead9083c756cc25afa9182156107a45788926107f9575b50610601906105fb6105f4868a8a611c4a565b898661202a565b5061190c565b5183018084116107cc57604051907fa9059cbb00000000000000000000000000000000000000000000000000000000825273ba12222222228d8ba445958a75a0704d566bf2c8600483015260248201526020816044818b73c02aaa39b223fe8d0a0e5c4f27ead9083c756cc25af180156107a4576107af575b50604051907f70a0823100000000000000000000000000000000000000000000000000000000825230600483015260208260248173c02aaa39b223fe8d0a0e5c4f27ead9083c756cc25afa9081156107a45784928992610767575b506106e9926106e3916119a1565b906119a1565b928084106107375750917f6a455f3a3fd186c05fb93bcf9e5468de97a053faaad0c33d854879a950b1f177939160ff608094816040519516855216602084015260408301526060820152a280f35b86604491857f4e88422a000000000000000000000000000000000000000000000000000000008352600452602452fd5b925090506020823d60201161079c575b8161078460209383611856565b8101031261079857905183916106e96106d5565b5f80fd5b3d9150610777565b6040513d8a823e3d90fd5b6107c79060203d6020116103685761035b8183611856565b61067a565b6024887f4e487b710000000000000000000000000000000000000000000000000000000081526011600452fd5b9091506020813d602011610827575b8161081560209383611856565b810103126107985751906106016105e1565b3d9150610808565b8480fd5b6004857f698bba4b000000000000000000000000000000000000000000000000000000008152fd5b8280fd5b6024857f4e487b710000000000000000000000000000000000000000000000000000000081526041600452fd5b8380fd5b5080fd5b823573ffffffffffffffffffffffffffffffffffffffff8116810361082f57815260209283019201610444565b503461012e57807ffffffffffffffffffffffffffffffffffffffffffffffffffffffffffffffffc36011261012e57602060405160028152f35b503461012e57807ffffffffffffffffffffffffffffffffffffffffffffffffffffffffffffffffc36011261012e5773ffffffffffffffffffffffffffffffffffffffff7f0000000000000000000000000000000000000000000000000000000000000000168033036109a457819047908115801561097957505050f35b839283928392839061099b575bf11561098f5780f35b604051903d90823e3d90fd5b506108fc610986565b6004827f30cd7471000000000000000000000000000000000000000000000000000000008152fd5b503461012e5760207ffffffffffffffffffffffffffffffffffffffffffffffffffffffffffffffffc36011261012e57604060209173ffffffffffffffffffffffffffffffffffffffff610a1e61176e565b168152600183522054604051908152f35b503461012e57807ffffffffffffffffffffffffffffffffffffffffffffffffffffffffffffffffc36011261012e57602060405173c02aaa39b223fe8d0a0e5c4f27ead9083c756cc28152f35b503461012e5760207ffffffffffffffffffffffffffffffffffffffffffffffffffffffffffffffffc36011261012e5773ffffffffffffffffffffffffffffffffffffffff604060209282610acf61176e565b168152808452205416604051908152f35b503461012e5760807ffffffffffffffffffffffffffffffffffffffffffffffffffffffffffffffffc36011261012e57610b1861176e565b90602435610b246117b4565b92610b2d6117c4565b936040517f70a0823100000000000000000000000000000000000000000000000000000000815230600482015260208160248173c02aaa39b223fe8d0a0e5c4f27ead9083c756cc25afa8015610bf257610bbc575b509381610b9584610b9b946020986119e9565b91611b27565b81811115610bb557610bad92506119a1565b604051908152f35b5050610bad565b9490916020863d602011610bea575b81610bd860209383611856565b81010312610798579094509081610b82565b3d9150610bcb565b6040513d87823e3d90fd5b503461012e57807ffffffffffffffffffffffffffffffffffffffffffffffffffffffffffffffffc36011261012e57602060405173ba12222222228d8ba445958a75a0704d566bf2c88152f35b503461012e57807ffffffffffffffffffffffffffffffffffffffffffffffffffffffffffffffffc36011261012e57602060405173ffffffffffffffffffffffffffffffffffffffff7f0000000000000000000000000000000000000000000000000000000000000000168152f35b503461012e57807ffffffffffffffffffffffffffffffffffffffffffffffffffffffffffffffffc36011261012e57602060405160048152f35b503461012e5760607ffffffffffffffffffffffffffffffffffffffffffffffffffffffffffffffffc36011261012e57610d2b61176e565b610d33611791565b6044359162ffffff831680930361088c5773ffffffffffffffffffffffffffffffffffffffff7f0000000000000000000000000000000000000000000000000000000000000000163303610fa95773ffffffffffffffffffffffffffffffffffffffff169182845260026020526040842073ffffffffffffffffffffffffffffffffffffffff83167fffffffffffffffffffffffff0000000000000000000000000000000000000000825416179055828452600360205260408420907fffffffffffffffffffffffffffffffffffffffffffffffffffffffffff0000008254161790556040517f095ea7b300000000000000000000000000000000000000000000000000000000815273e592427a0aece92de3edee1f18e0157c0586156460048201527fffffffffffffffffffffffffffffffffffffffffffffffffffffffffffffffff60248201526020816044818773c02aaa39b223fe8d0a0e5c4f27ead9083c756cc25af1801561036f57610f8c575b50604051907f095ea7b300000000000000000000000000000000000000000000000000000000825273e592427a0aece92de3edee1f18e0157c0586156460048301527fffffffffffffffffffffffffffffffffffffffffffffffffffffffffffffffff602483015260208260448187875af190811561036f577f40f25d1705e032e3ccedacdfa8dbf0a8ee392f4ca4bad65e1877f0afef3ce08792604092610f6f575b5073ffffffffffffffffffffffffffffffffffffffff82519160038352166020820152a280f35b610f879060203d6020116103685761035b8183611856565b610f48565b610fa49060203d6020116103685761035b8183611856565b610ea5565b6004847f30cd7471000000000000000000000000000000000000000000000000000000008152fd5b503461012e57807ffffffffffffffffffffffffffffffffffffffffffffffffffffffffffffffffc36011261012e57602060405160038152f35b503461012e5760207ffffffffffffffffffffffffffffffffffffffffffffffffffffffffffffffffc36011261012e5761104361176e565b73ffffffffffffffffffffffffffffffffffffffff7f000000000000000000000000000000000000000000000000000000000000000016908133036103975773ffffffffffffffffffffffffffffffffffffffff16906040517f70a08231000000000000000000000000000000000000000000000000000000008152306004820152602081602481865afa90811561036f57849161115e575b50806110e6578380f35b60446020928560405195869485937fa9059cbb000000000000000000000000000000000000000000000000000000008552600485015260248401525af1801561115357611134575b80808380f35b61114c9060203d6020116103685761035b8183611856565b505f61112e565b6040513d84823e3d90fd5b90506020813d602011611188575b8161117960209383611856565b8101031261079857515f6110dc565b3d915061116c565b503461012e5760407ffffffffffffffffffffffffffffffffffffffffffffffffffffffffffffffffc36011261012e576111c861176e565b73ffffffffffffffffffffffffffffffffffffffff7f00000000000000000000000000000000000000000000000000000000000000001633036109a45773ffffffffffffffffffffffffffffffffffffffff16808252600160205260243560408320556040517f095ea7b300000000000000000000000000000000000000000000000000000000815273ba12222222228d8ba445958a75a0704d566bf2c860048201527fffffffffffffffffffffffffffffffffffffffffffffffffffffffffffffffff60248201526020816044818673c02aaa39b223fe8d0a0e5c4f27ead9083c756cc25af1801561139b576113a6575b506040517f095ea7b300000000000000000000000000000000000000000000000000000000815273ba12222222228d8ba445958a75a0704d566bf2c860048201527fffffffffffffffffffffffffffffffffffffffffffffffffffffffffffffffff602482015260208160448186865af1801561139b5761137e575b507f40f25d1705e032e3ccedacdfa8dbf0a8ee392f4ca4bad65e1877f0afef3ce087604080516002815273ba12222222228d8ba445958a75a0704d566bf2c86020820152a280f35b6113969060203d6020116103685761035b8183611856565b611336565b6040513d85823e3d90fd5b6113be9060203d6020116103685761035b8183611856565b6112ba565b503461012e5760207ffffffffffffffffffffffffffffffffffffffffffffffffffffffffffffffffc36011261012e5773ffffffffffffffffffffffffffffffffffffffff60406020928261141661176e565b16815260028452205416604051908152f35b50346107985760a07ffffffffffffffffffffffffffffffffffffffffffffffffffffffffffffffffc3601126107985761146061176e565b6114686117b4565b6114706117c4565b73ffffffffffffffffffffffffffffffffffffffff7f00000000000000000000000000000000000000000000000000000000000000001633036116e25760ff809273ffffffffffffffffffffffffffffffffffffffff604051951660208601521660408401521660608201526084356080820152608081526114f360a082611856565b60408051916115028284611856565b600183527fffffffffffffffffffffffffffffffffffffffffffffffffffffffffffffffe0820190602084018236823773c02aaa39b223fe8d0a0e5c4f27ead9083c756cc26115508661190c565b52835161155d8582611856565b6001815260208101933685376024356115758261190c565b5273ba12222222228d8ba445958a75a0704d566bf2c83b156107985784517f5c38449e0000000000000000000000000000000000000000000000000000000081523060048201526080602482015295516084870181905292938693909260a4850192915f5b8181106116b3575050506020907ffffffffffffffffffffffffffffffffffffffffffffffffffffffffffffffffc85840301604486015251918281520191905f5b81811061169a5750505061165b815f947ffffffffffffffffffffffffffffffffffffffffffffffffffffffffffffffffc85809503016064850152611946565b03818373ba12222222228d8ba445958a75a0704d566bf2c85af19081156116915750611685575080f35b61001a91505f90611856565b513d5f823e3d90fd5b825184528794506020938401939092019160010161161b565b825173ffffffffffffffffffffffffffffffffffffffff168552899650602094850194909201916001016115da565b7f30cd7471000000000000000000000000000000000000000000000000000000005f5260045ffd5b346107985760207ffffffffffffffffffffffffffffffffffffffffffffffffffffffffffffffffc3601126107985760209073ffffffffffffffffffffffffffffffffffffffff61175961176e565b165f526003825262ffffff60405f2054168152f35b6004359073ffffffffffffffffffffffffffffffffffffffff8216820361079857565b6024359073ffffffffffffffffffffffffffffffffffffffff8216820361079857565b6044359060ff8216820361079857565b6064359060ff8216820361079857565b610100810190811067ffffffffffffffff8211176117f157604052565b7f4e487b71000000000000000000000000000000000000000000000000000000005f52604160045260245ffd5b60c0810190811067ffffffffffffffff8211176117f157604052565b6080810190811067ffffffffffffffff8211176117f157604052565b90601f7fffffffffffffffffffffffffffffffffffffffffffffffffffffffffffffffe0910116810190811067ffffffffffffffff8211176117f157604052565b67ffffffffffffffff81116117f15760051b60200190565b9080601f830112156107985781356118c681611897565b926118d46040519485611856565b81845260208085019260051b82010192831161079857602001905b8282106118fc5750505090565b81358152602091820191016118ef565b8051156119195760200190565b7f4e487b71000000000000000000000000000000000000000000000000000000005f52603260045260245ffd5b907fffffffffffffffffffffffffffffffffffffffffffffffffffffffffffffffe0601f602080948051918291828752018686015e5f8582860101520116010190565b90816020910312610798575180151581036107985790565b919082039182116119ae57565b7f4e487b71000000000000000000000000000000000000000000000000000000005f52601160045260245ffd5b519060ff8216820361079857565b60ff1660018103611aba575073ffffffffffffffffffffffffffffffffffffffff165f525f602052602073ffffffffffffffffffffffffffffffffffffffff60405f205416916064604051809481937f5e0d443f0000000000000000000000000000000000000000000000000000000083525f60048401526001602484015260448301525afa908115611aaf575f91611a80575090565b90506020813d602011611aa7575b81611a9b60209383611856565b81010312610798575190565b3d9150611a8e565b6040513d5f823e3d90fd5b90506003915014611ac9575f90565b60646040517f08c379a000000000000000000000000000000000000000000000000000000000815260206004820152601460248201527f5573652051756f74657220666f7220556e6956330000000000000000000000006044820152fd5b60ff1660018103611aba575060209073ffffffffffffffffffffffffffffffffffffffff811673c02aaa39b223fe8d0a0e5c4f27ead9083c756cc214908115611c2f575073ffffffffffffffffffffffffffffffffffffffff73c02aaa39b223fe8d0a0e5c4f27ead9083c756cc25b165f525f8252606473ffffffffffffffffffffffffffffffffffffffff60405f20541691805f14611c27575f905b15611c20576001925b60405195869485937f5e0d443f000000000000000000000000000000000000000000000000000000008552600f0b6004850152600f0b602484015260448301525afa908115611aaf575f91611a80575090565b5f92611bcd565b600190611bc4565b73ffffffffffffffffffffffffffffffffffffffff90611b96565b60ff1660018103611c78575090611c759173c02aaa39b223fe8d0a0e5c4f27ead9083c756cc2612314565b90565b60028103611e93575073ffffffffffffffffffffffffffffffffffffffff16805f52600160205260405f2054908115611e635760405191611cb88361181e565b8252602082015f8152604083019373c02aaa39b223fe8d0a0e5c4f27ead9083c756cc28552606084019283526080840190815260209460405192611cfc8785611856565b5f845260a0860193845260405191611d138361183a565b3083528783015f8152604084019030825260608501935f8552604051997f52bbbe29000000000000000000000000000000000000000000000000000000008b5260e060048c01525160e48b015251976002891015611e3657611dc18a98899873ffffffffffffffffffffffffffffffffffffffff8097948f9d829683916101048f015251166101248d015251166101448b0152516101648a01525160c06101848a01526101a4890190611946565b955116602487015251151560448601525116606484015251151560848301525f60a48301524260c483015203815f73ba12222222228d8ba445958a75a0704d566bf2c85af1918215611aaf575f92611e1857505090565b90809250813d8311611e2f575b611a9b8183611856565b503d611e25565b7f4e487b71000000000000000000000000000000000000000000000000000000005f52602160045260245ffd5b7f0ff22e8e000000000000000000000000000000000000000000000000000000005f52600452600260245260445ffd5b60038103611fff575073ffffffffffffffffffffffffffffffffffffffff16805f52600360205262ffffff60405f205416918215611fce579173ffffffffffffffffffffffffffffffffffffffff917f414bf389000000000000000000000000000000000000000000000000000000009360405192611f11846117d4565b73c02aaa39b223fe8d0a0e5c4f27ead9083c756cc284526020840192835260408401908152846060850130815262ffffff608087019342855260a088019586528360c08901975f89528160e08b019a5f8c526040519d8e52511660048d0152511660248b015251166044890152511660648701525160848601525160a48501525160c4840152511660e4820152602081610104815f73e592427a0aece92de3edee1f18e0157c058615645af1908115611aaf575f91611a80575090565b507f0ff22e8e000000000000000000000000000000000000000000000000000000005f52600452600360245260445ffd5b7fe5ad710e000000000000000000000000000000000000000000000000000000005f5260045260245ffd5b90919060ff1660018103612057575073c02aaa39b223fe8d0a0e5c4f27ead9083c756cc2611c7592612314565b60028103612142575073ffffffffffffffffffffffffffffffffffffffff82169173c02aaa39b223fe8d0a0e5c4f27ead9083c756cc28303612127575073ffffffffffffffffffffffffffffffffffffffff73c02aaa39b223fe8d0a0e5c4f27ead9083c756cc25b1690815f52600160205260405f2054918215611e635750604051916120e38361181e565b8252602082015f815260408301938452606083019173c02aaa39b223fe8d0a0e5c4f27ead9083c756cc283526080840190815260209460405192611cfc8785611856565b73ffffffffffffffffffffffffffffffffffffffff906120bf565b60038103611fff575073ffffffffffffffffffffffffffffffffffffffff82169173c02aaa39b223fe8d0a0e5c4f27ead9083c756cc283036122f9575073ffffffffffffffffffffffffffffffffffffffff73c02aaa39b223fe8d0a0e5c4f27ead9083c756cc25b1690815f52600360205262ffffff60405f2054169182156122c957509173ffffffffffffffffffffffffffffffffffffffff917f414bf38900000000000000000000000000000000000000000000000000000000936040519261220c846117d4565b8352602083019173c02aaa39b223fe8d0a0e5c4f27ead9083c756cc2835260408401908152846060850130815262ffffff608087019342855260a088019586528360c08901975f89528160e08b019a5f8c526040519d8e52511660048d0152511660248b015251166044890152511660648701525160848601525160a48501525160c4840152511660e4820152602081610104815f73e592427a0aece92de3edee1f18e0157c058615645af1908115611aaf575f91611a80575090565b7f0ff22e8e000000000000000000000000000000000000000000000000000000005f52600452600360245260445ffd5b73ffffffffffffffffffffffffffffffffffffffff906121aa565b919073ffffffffffffffffffffffffffffffffffffffff73c02aaa39b223fe8d0a0e5c4f27ead9083c756cc281851614915f94835f146125d557505b1690815f525f60205273ffffffffffffffffffffffffffffffffffffffff60405f2054169182156125a55750801561259c575f6001915b156124835773c02aaa39b223fe8d0a0e5c4f27ead9083c756cc23b1561082f576040517f2e1a7d4d00000000000000000000000000000000000000000000000000000000815284600482015285816024818373c02aaa39b223fe8d0a0e5c4f27ead9083c756cc25af1801561247857908691612463575b50506040517f3df02124000000000000000000000000000000000000000000000000000000008152600f91820b600482015291900b6024820152604481018390525f60648201529160209183916084918391905af191821561098f5791611a80575090565b8161246d91611856565b61082f57845f6123fe565b6040513d88823e3d90fd5b6040517f3df02124000000000000000000000000000000000000000000000000000000008152600f91820b600482015291900b602482015260448101929092525f60648301819052919250479160209184916084918391905af18015611aaf57612569575b6124f39150476119a1565b73c02aaa39b223fe8d0a0e5c4f27ead9083c756cc23b15610798576040517fd0e30db00000000000000000000000000000000000000000000000000000000081525f816004818573c02aaa39b223fe8d0a0e5c4f27ead9083c756cc25af18015611aaf5761255f575090565b5f611c7591611856565b6020823d602011612594575b8161258260209383611856565b81010312610798576124f391506124e8565b3d9150612575565b60015f91612387565b7f0ff22e8e000000000000000000000000000000000000000000000000000000005f52600452600160245260445ffd5b905061235056fea2646970667358221220ec15206c8bf85fd30d6efb5295b63c5ab6d6dc72c102d6ccbac939d1c06c0c8a64736f6c634300081e0033","linkReferences":{}},"methodIdentifiers":{"BALANCER()":"96f50b2d","VENUE_BALANCER()":"e6e6ad39","VENUE_CURVE()":"fb43be45","VENUE_MAVERICK()":"879b9f1d","VENUE_UNISWAP_V3()":"7fe4e3c7","WETH()":"ad5c4648","balancerPoolIds(address)":"d259175b","configureBalancer(address,bytes32)":"38aa3446","configureCurve(address,address)":"f33fec2b","configureUniswapV3(address,address,uint24)":"8351351b","curvePools(address)":"a7888718","executeArb(address,uint256,uint8,uint8,uint256)":"229d3812","owner()":"8da5cb5b","receiveFlashLoan(address[],uint256[],uint256[],bytes)":"f04f2707","simulateArb(address,uint256,uint8,uint8)":"99e96fcc","uniswapFees(address)":"0e04d2ff","uniswapPools(address)":"32e4b7f1","withdraw(address)":"51cff8d9","withdrawETH()":"e086e5ec"},"id":0}